:020000040800F2
:102000000032002029210008B15E0008E1540008D8
:1020100035210008372100083921000800000000A0
:10202000000000000000000000000000C177000870
:102030003D21000800000000AD5F00082F7A000875
:1020400043210008432100084321000843210008E0
:1020500043210008432100084321000843210008D0
:1020600043210008432100084321000843210008C0
:1020700043210008432100084321000843210008B0
:1020800043210008432100084321000843210008A0
:102090004321000843210008432100084321000890
:1020A0004321000843210008432100084321000880
:1020B000432100088D7C00084321000843210008CB
:1020C0004321000843210008432100084321000860
:1020D000BD810008798300084321000843210008DE
:1020E0004321000843210008432100084321000840
:1020F0004321000843210008432100084321000830
:10210000432100084321000843210008432100081F
:1021100043210008DFF80CD000F0BEFB0048004768
:1021200045930008003200200648804706480047D3
:10213000FEE7FEE7FEE7FEE7FEE7FEE7FEE7FEE777
:10214000FEE7FEE7D97B00081521000840EA0103FD
:102150009B0703D009E008C9121F08C0042AFAD25D
:1021600003E011F8013B00F8013B521EF9D2704721
:10217000D2B201E000F8012B491EFBD270470022C9
:10218000F6E710B513460A4604461946FFF7F0FF76
:10219000204610BD80EA010210B502F00043400065
:1021A00022D04A001FD0010E01EB1261C0F356008D
:1021B000C2F3560240F4000042F40002A0FB0220E9
:1021C00000047F39140400D0401C50EA124001D4AE
:1021D0004000491EC2B20C0604EBD010401C40085F
:1021E000802A02D003E0002010BD20F00100002969
:1021F00000DA0020184310BD30B480EA010202F07A
:10220000004530F0004221F0004013D090B1C30DE2
:10221000D40DC2F31601C0F31600E41A41F4000114
:1022200040F400027D34914201D3641C00E0490077
:10223000002C02DA30BC002070474FF4000000236D
:10224000914201D3891A034340084FEA4101F7D173
:1022500051B1914202D14FF0004105E002D24FF05E
:10226000010101E06FF0010103EBC450284430BCD0
:1022700000F0A6B92DE9FE4F81EA030404F0004402
:1022800021F0004100944FF0000B23F0004350EA8E
:1022900001045ED052EA03045BD0C3F30A54C1F3D5
:1022A0000A552C44A4F2F3340194A0FB0254C1F368
:1022B000130141F48011C3F3130343F4801301FBB2
:1022C000024400FB034E840A970A44EA815447EA19
:1022D0008357A4FB076802958D0A05FB07854FEA23
:1022E000932C04FB0C542705029D4FEA065847EA3D
:1022F0001637B5EB08056EEB070C870E920E47EA12
:10230000811742EA8312A7FB0201B6EB0B0164EBD3
:1023100000042B0D43EA0C335E1844EB1C50DA46E4
:102320005146E7FB0201C5F313044FEA0B3343EABE
:1023300014534FEA0432019C43EA0603A4F10C044F
:102340000294009CCDE900B400F080F903B0BDE830
:10235000F08F00200146F9E72DE9F04D81EA0304F2
:1023600004F0004B21F0004514464FF0000A23F022
:10237000004150EA050220D054EA01021DD0C5F305
:102380000A570246C5F31303C1F31300C1F30A56FB
:1023900040F4801543F48013A7EB0608101BD646C3
:1023A00008F2FD3873EB050002D308F1010801E0E3
:1023B00092185B41B8F1000F03DA00200146BDE836
:1023C000F08D00204FF48011064684460EE0171B66
:1023D00073EB050705D3121B63EB050306434CEAB9
:1023E000010C49084FEA300092185B4150EA01079E
:1023F000EDD152EA030012D082EA040083EA05011B
:10240000084305D0101BAB4106D20122002306E091
:1024100000224FF0004302E06FF0010253101AEB6C
:1024200006004CEB085110EB0A0041EB0B01BDE834
:10243000F04D00F0FCB896230022114600F0C9B818
:102440000EB540F2334102910021CDE900110A4658
:102450000B4600F0FBF803B000BD20F00040C10DBA
:10246000C0F3160040F400007F2901DA0020704715
:10247000962903DCC1F19601C8407047963988401F
:102480007047C1F30A5210B5C1F3130140F2FF3394
:1024900041F480119A4201DA002010BD40F233432A
:1024A0009A42A2F2334203DC524200F079F810BDA6
:1024B000904010BD00F0004230F000400AD0C10D45
:1024C00001F56071C0F3160042EA0151C2084007ED
:1024D0001143704700200146704701F0004330B4BB
:1024E00021F0004150EA010206D00A0DA2F5607207
:1024F000C1F31301002A02DC30BC00207047440FF6
:1025000044EAC104C100E01830BC00EBC25000F046
:1025100057B830B50B46014600202022012409E0BF
:1025200021FA02F59D4205D303FA02F5491B04FA8C
:1025300002F52844151EA2F10102F1DC30BD2DE99F
:10254000F05F0546002092469B4688460646814637
:1025500040241BE0284641464746224600F020F82A
:1025600053465A46C01A914110D311461846224686
:1025700000F0A4F92D1A67EB01084F46224601200E
:10258000002100F09BF917EB00094E41201EA4F139
:102590000104DFDC484631462A464346BDE8F09F49
:1025A000202A04DB203A21FA02F00021704721FAA8
:1025B00002F3D040C2F1200291400843194670470F
:1025C0000029A8BF7047401C490008BF20F0010047
:1025D000704710B4B0FA80FC00FA0CF050EA010425
:1025E00004BF10BC704749B1CCF1200421FA04F4B7
:1025F00011FA0CF118BF012121430843A3EB0C0190
:10260000CB1D4FEA00614FEA102042BF002010BCF2
:10261000704700EBC35010440029A4BF10BC7047A2
:10262000401C490008BF20F0010010BC704710B5E5
:10263000141E73F1000408DA401C41F100019218E5
:102640005B411A4301D120F0010010BD2DE9F04D8E
:1026500092469B4611B1B1FA81F202E0B0FA80F2E3
:102660002032904600F02AF904460F4640EA0A005C
:1026700041EA0B0153465A46084313D0114653EA28
:10268000010019D0C8F140025046FFF789FF054606
:102690000E4650465946424600F010F9084305D010
:1026A000012004E020463946BDE8F08D00200543B6
:1026B00046EAE0762C4337430A986305E40AA0EB28
:1026C00008000022FD0A44EA47540A3002D50020DF
:1026D0000146E9E7010510196941DDE908450019DE
:1026E0006941BDE8F04DA2E72DE9FE4F804681EA41
:1026F0000300C00F0C46009021F0004123F000457C
:10270000B8EB0200A94105D24046214690461C463E
:102710000B46024623F00040104347D0270DC7F375
:102720000A00C3F30A510290401A019040286BDA64
:10273000C3F3130040F4801B0098924620B100239D
:10274000D2EB030A63EB0B0B01985946C0F1400230
:10275000504600F0B3F806460D4650465946019AD9
:1027600000F0BBF810EB08006141002487EA115229
:1027700084EAE7731A4340D0009A62B3019A012AAF
:102780004FEA075215DC001B61EB02014FF00042DB
:1027900002EA0752CDE90042001C41F580113246A1
:1027A0002B46FFF753FF03B0BDE8F08F40462146AC
:1027B000F9E7001B61EB0201001C41F580130018D2
:1027C0005B412018A2F5001747EB030140EAD570E2
:1027D000B6196D4111E06D084FEA360645EAC0753D
:1027E0004FEA0752001B61EB0201001C41F580110A
:1027F00049084FEA30000019514132462B4603B0D8
:10280000BDE8F04FFFF713BF0098012240000023FE
:10281000D0EB020263EBE073009821464FEAE074CC
:10282000B8EB000061EB0401E9E783F000435BE7EC
:1028300081F0004158E7C1F30A52C1F3130140F29D
:10284000FF3341F480119A4202DA002001467047BA
:1028500040F233439A42A2F2334202DC5242FFF783
:102860009FBE00F02BB8000030B5041E71F10004CB
:1028700004DB4FF00044404264EB0101141E73F18D
:10288000000405DB1C464FF00043524263EB040397
:10289000994208BF904230BD064C074D06E0E06803
:1028A00040F0010394E8070098471034AC42F6D397
:1028B000FFF734FCDCA50008FCA50008202A04DB97
:1028C000203A00FA02F1002070479140C2F1200343
:1028D00020FA03F3194390407047202A06DBCB17F8
:1028E000203A41FA02F043EAE07306E041FA02F3CB
:1028F000D040C2F12002914008431946704770B59C
:102900008C1810F8015B15F0070301D110F8013B9A
:102910002A1106D110F8012B03E010F8016B01F821
:10292000016B5B1EF9D12B0705D40023521E0DD479
:1029300001F8013BFAE710F8013BCB1A921C03E0C7
:1029400013F8015B01F8015B521EF9D5A142D8D3FF
:10295000002070BD00220026284600F04FBFC4F8BA
:10296000360094F8350040F00100704770B5A2B011
:10297000044600204FF4D0710390CDE90100B1F579
:10298000DC7F04D06218605008315060F7E70DF129
:102990001205002604F168012846A4F89E6100F0A3
:1029A0003BFE204600F002FFBDF88610A07801AA89
:1029B0004901032E08D035F8133B073B83400B44F5
:1029C00042F826300136F4E701200021069A84F807
:1029D0009F01BDF87800A4F8A61164214A43C4F809
:1029E0009A01B2FBF0F0A4F8A40101984843FFF764
:1029F00022FD0146A06DFFF7CDFB0449FFF7FCFB6C
:102A0000FFF72BFDC4F8A00122B070BD0000C84242
:102A10002DE9F04FADF5217D219000F5D07184783E
:102A20000023219815914FF4D0718DF8D031ADF875
:102A3000CE316893CDE96633B1F5DC7F04D042181E
:102A4000435008315360F7E7219E0DF5E9770025E3
:102A5000384606F1680186F89F5100F0DDFD3046EA
:102A600000F0A4FEB0781F90BDF846024301032D8C
:102A70000AD037F8131B1F9A0739914066AA1944E8
:102A800042F825100135F2E72198BDF8388200930D
:102A900040F29C73052CD0F89A1101EB0806C0F89F
:102AA0009A6108BF40F2DC5390F89E0100256699B8
:102AB000BDF8D2210390209198B1B1F5C87F4FF0B5
:102AC000000C20D90398441E219800F5AF7151F8ED
:102AD0002470BA4208D91F980121D41BC1408C42EE
:102AE0000EE04FF0000C0EE01F980127096827FA4E
:102AF00000FE13270DF5E9707C43045B091B71454B
:102B000098BF4FF0010C0024002117468DF8975113
:102B10005F2D12D00DF5E97092B2BFB2405B8342D7
:102B200038BF0131962838BF0134904238BF024681
:102B3000B84288BF07461335EAE7E0B2032804D855
:102B4000C8B250FA84F0052801D3012300E0002325
:102B500090B2B9B2081A63280DF5E970DCBF012301
:102B60008DF897316EAC69AD00F13F010022022A69
:102B700008D008684F68133144F8220045F82270E5
:102B80000132F4E7DDE96E2183F0010A8A4287BF52
:102B9000CDE96E12104608461146DDE969329346CA
:102BA000934288BF9B46CDF84BB138BF1A46ABEB7A
:102BB0000203B3EB182F1A46CDF84F3198BF4FEAF6
:102BC0001822441ACDF80301B4EBD81FCDF8074101
:102BD00098BF4FEAD8140A210A2C98BF0C461994C2
:102BE000B3EB182F28BF092A04D80A2A88BF114638
:102BF000CDF84F110AEA0C010546139100F094FE3E
:102C00008046584600F090FEDFF8941651F82000F8
:102C100000FB0BF0FFF714FCE24B00229946FFF794
:102C20009BFBFFF72EFC0527052898BF38461F9C05
:102C3000CDF853017008032C88BF06EB56000290B4
:102C40001D95DFF8600630F818006843FFF7F8FBC1
:102C500000224B46FFF780FBFFF713FC6FF00401E7
:102C6000B6F5806F4FF0000C38BF6FF005010528F6
:102C700088BF074601FB07F016906FF00500B6F518
:102C8000806F38BF6FF0060007FB00F008906FF010
:102C9000030038BF6FF00400784307906FF0020024
:102CA000B6F5806F38BF6FF00300069078430E9042
:102CB0000220032C88BF032006FB00F00C904FF08D
:102CC000000088BF0120209B06FA00F0019000EB75
:102CD00056000490DDE96701C21A1192CA1A0B92DC
:102CE0004FF47A720BFB02F2E240B2FBF6F2052AD5
:102CF0004FF0000238BF0122081A12971090769800
:102D000042EA0A0218927A000F90779817927A088E
:102D100005920DF5E9720D90DDF8EB01931D0A9017
:102D2000DDF8EF0109900020BCF1030FC1B21C9047
:102D3000209100F039815FFA8CF01D9A022803D0AF
:102D400001281ED111980DE01098952809D8DFF8B8
:102D500058156424085C09994143B1FBF4FA0A99B7
:102D60000BE00B9895280CD8DFF83C156424085C20
:102D70000D994143B1FBF4FA0F994843B0FBF4F0CD
:102D800002E04FF0000A002028A91D681E935B682E
:102D900001EB8C08811819980022C8F8DB20C8F8CC
:102DA000E7200844A5EB00091798C8F86F90DDF8F4
:102DB0004F410844A5EB000EDDF84B01C8F87BE05D
:102DC00054442044DDF84B61DDF85371C8F893207A
:102DD000C8F89F20181A1A90C8F8B7000AEB060026
:102DE00000EB4700181AC8F8C30066AC189A54F8EC
:102DF0002C604FEA96140AB14A2C1AD8169A691A0E
:102E00008F18C8F88770DDF84B11DDF85351514425
:102E1000591A05EB85035B4219444A2CC8F8CF10B8
:102E200004D83309182B3BD80C9A53E0CDF86C909A
:102E30005DE00E9A6C1A1F9E1490CDF86C90A71846
:102E4000C8F88770032EDDF853012DD8059AA0EB42
:102E500080061144079A691A01EB0209089ADDF805
:102E60004B11C8F8939004EB020BDDF84B41514431
:102E7000DDF85351591AC8F89FB054443144DDF875
:102E8000536104EB4504C8F8CF101D1BDDF84B411E
:102E90005644C8F8DB5034441B1BC8F8E73012E036
:102EA0004A2B12D8049A15E0DDF84B11069A4FF020
:102EB000000B00254FF000095144591A002302FB72
:102EC0000011C8F8CF10149817E073094A2B8CBF73
:102ED000029A019AA9EB0209AEEB020EBF1AC8F8DA
:102EE0007BE0CDF86C90C8F86F90C8F8877000232D
:102EF0004FF0000B00254FF00009002B4FF00003AE
:102F00004FF000064FF000044FF00002C8BF01234D
:102F1000BBF1000FC8BF0126002D4FF00005C8BF50
:102F20000125B9F1000FC8BF012400294FF00001AD
:102F3000C8BF0121002F4FF00007C8BF012739404B
:102F400000284FF00000C8BF0120BEF1000FC8BF2D
:102F50000122BCF1000F08D0F1B120990DF5E77006
:102F600000F801C01C98013017E02C401B9D334035
:102F7000002D4FF00005C8BF0125139E3540012DDF
:102F800006D11A9D012D03DB10400843204301E0C8
:102F900041EA04001843E0D11C981E9B0CF1010C7F
:102FA0001333C1E6006AF8402199039A209B81F807
:102FB0009F0101EB4200A0F8863101EB82009DF8F1
:102FC000CE211321009B119251430DF5E972515A04
:102FD0001F9A0739914019441D9BC0F85E11B348F0
:102FE000B349279001F1093026900020CDE9230153
:102FF0004FF48171052A2590229125D84FF47A71DA
:103000000DF1980816914FF4C87117911F9ADFE8D7
:1030100002F01E031B1B0D164FF47A700DF1900881
:10302000169040F232501790002010E04FF4FA70E2
:103030000DF18808169000201790012007E01790E6
:1030400001200DF1880800E01790002116912199C8
:10305000C0070FF264294FF0000A01F5DF711491E7
:1030600092AF13902098824500F0F0800DF5E77044
:10307000132110F80A400DF5E97014FB0100D0F897
:103080000610994212D9C91A219B64224A4301EBC6
:103090008101D3F89A314900B2FBF3F21B9203226B
:1030A000B1FBF2F1129AB1FBF2FB03E000214FF009
:1030B000000B1B91149AC4EB44111E94847C384677
:1030C00002EB41013C22189102311991FFF73EF8C1
:1030D000C4F10E001A946FF007035FFA80FCBCF194
:1030E000070F624698BF07220021154600206BB1EA
:1030F0000E2D0BD808EB0304247A3CB157F8256059
:103100000135013306FB04113044F0E7C00816D046
:1031100098F80030674D4FF47A7413FB045357F856
:103120002240091B4FF4FA7489086143B1FBF0F0A7
:10313000B3EB000E4FF0000038BF864601E04FF0C1
:10314000000E901E0023C2B200201146441D0CD078
:103150000E290AD857F82140A34228BF2346002849
:1031600008BF234601310138F0E700256FF0040065
:10317000002170B10E2A0CD857F8224009EB000646
:103180000132013096F90560E41A04FB061125446A
:10319000EFE725B16420484390FBF5F200E0002200
:1031A00013981E9C88B9189800EB8C00D0F8023058
:1031B0001998C5691A98B3EB450FC0F1070108D9F2
:1031C00048B26FF0630110FB012266A850F824009A
:1031D0000CE066A850F8240005EB5504A34204D97E
:1031E00049B26FF0310311FB03221E9C1F9902FAB2
:1031F00001F1642200FB021017994FF47A720EFB62
:1032000001F1B1FBF2F1169A511A0844FFF713F9D4
:1032100001462198806DFEF7BDFF2949FEF7ECFFBE
:10322000FFF71BF915991B9A41F83A0001EBC4000E
:10323000828001EBCA004FF6FF710AF1010A8B454B
:1032400028BF8B461D9BA0F806B00BE71C98000614
:103250001AD1119A13200DF5E97112FB0010D0F864
:103260000600984210D90F986421C01A48430321E0
:1032700080B2B0FBF1F01299B0FBF1F00A21B0FB83
:10328000F1F02199A1F8A6010398082803D8219903
:10329000013081F89E010DF5217DBDE8F08F00BF62
:1032A000B0A30008E4A2000844A500080B0A080621
:1032B0000605040318FCFFFFFEFF000102000000EA
:1032C0000000C84210B59EB0044600F168010DF13F
:1032D000020000F0A1F9204600F068FABDF80200F3
:1032E0001E2801D32F2801D3012000E000200299DD
:1032F00045F6C052914203D346F28232914200D346
:10330000012038B9BDF86800B0F5806F04BF012016
:1033100084F8B8011EB010BD10B59EB0044600F18F
:1033200068010DF1020000F077F9204600F03EFA46
:10333000BDF86A00C4F85E011EB010BDB0F86F1091
:1033400049BAC0F8B911704710B504460F3018A13A
:103350001422FEF7FBFE04F123001AA11122FEF74E
:10336000F5FE1D484FF66041C4F83A103221606402
:103370006420E18741F6726120641848A4F848107F
:103380007E2184F84A107021C4F835008820A4F802
:103390004F10134984F83400002084F8390084F871
:1033A000510045F64040C4F84B10A4F8560010BD3B
:1033B0008012F821790B1C4C23FFF0003D27BBC085
:1033C0000000DDD8810F0B1C6C23FFF0003D27BBF4
:1033D000C00000DDD80000000FFFC309C106400196
:1033E00073A18000F8B5044600782D2824BF1E2064
:1033F00020706078072824BF00206070A17806291B
:1034000024BF0521A170B4F80520B2F5804F84BF18
:103410004FF48042A4F80520B4F80720B2F5804F9D
:1034200084BF4FF48042A4F80720637A042B24BFA2
:1034300000236372A37A022B24BF0123A372237B90
:10344000402B24BF3F232373667B0125B4F903304F
:10345000102E24BF0F266673D3FA55F705299ABF9D
:1034600050A35D5C0225DFE800F004044B3A042C15
:103470002C0004F10F06304600F0C0F9E27A380A59
:10348000A17A94F8353084F8397084F83800607A7D
:1034900084F84120B4F80520B1FA81F1800049098F
:1034A000013A84F83F00C2F3052084F8372084F8FD
:1034B000360003F0FE000844294684F83500304603
:1034C00034E004F10F050021FFF744FA082084F8E6
:1034D000416084F83F003548FFF741FA22E004F1EB
:1034E0000F050521FFF736FA314884F83F6084F86C
:1034F00041600221FFF733FA84F83500284615E0D1
:1035000004F10F050021FFF725FA294894F835103A
:1035100084F84160C4F83600607A800084F83F0087
:1035200041F0010084F8350028460F2100F0E8F949
:103530006078811FB1FA81F149094900052804F139
:103540000F0008BF012100F039F8B4F84850194EB7
:1035500020786178227B637B3580520003F00F0373
:1035600075780439B27084F84A2005F0C00545EA40
:103570004303737018BF322184F83E100E49085C73
:103580005C21404260F07F0084F82F00A0773088F3
:10359000A4F848006078042808BF582184F8571020
:1035A000F8BD00BF201F02020302000000640001FA
:1035B000066703FFD004002020A10008027E012935
:1035C0000FD0C9B942F04001C279C37D017681793B
:1035D00003F0FE0342F04002C375C27121F0010105
:1035E00018E0C37D42F04001C2790176817943F051
:1035F000010342F0400209E002F0BF01C279C37D3D
:103600000176817943F0010302F0BF02C37541F0F6
:103610000101C2718171704770B54A788B7802F0F0
:10362000070243EA022202800B79CA784C791B0216
:1036300043EA024222449200C0F802208A79CB7900
:103640000C7A02F03F02120442EA03222244C0F83C
:1036500006208B7A4A7A9B0043EA8222C0F80A202D
:103660000B7BCA7A4C7B1B0243EA024222440E24A3
:10367000C0F80E204A788B7904EA9202C3F38013D3
:103680001A4482748A7BCB7B0C7C02F01F021204EA
:1036900042EA032201232244C0F86220B1F811203B
:1036A00012BA03EB1242A0F86620B1F8132012BA46
:1036B000120CA0F86820B1F8152012BA120CA0F86C
:1036C0006A20B1F8172012BA120CA0F86C20B1F8D9
:1036D000192012BA120CA0F86E20B1F81B2012BAF1
:1036E000120CA0F87020B1F81D2012BA120CA0F82C
:1036F0007220CA7F91F8203062F30D23A0F8743055
:103700008A7BD20980F85F208A7BC2F3801280F81E
:1037100060208A7BC2F3401280F8612025300022AD
:10372000342A08BF70BD8B180D3293F82140C4F3C2
:10373000C304047093F8214093F8225004F0070466
:1037400045EA042420F8124C93F8245093F82340BF
:1037500093F825602D0245EA04443444A40040F85F
:10376000104C93F8264093F8275093F8286004F003
:103770003F04240444EA0524344440F80C4C93F8F4
:103780002A5093F82940AD0045EA842440F8084CBB
:1037900093F82C5093F82B4093F82D302D0245EAE6
:1037A0000444234440F8043C1330B9E7F0B500F575
:1037B000E07100F5DF7200F1BE030024052C08BFA4
:1037C000F0BD6501C4EB44165D5B2DBA2D0C22F8EB
:1037D000165000250F2D0CD000EB450696F8C07052
:1037E00096F8C160B60046EA872641F825600135A3
:1037F000F0E720303E310134E0E700002DE9F041F0
:10380000052929D84FF0290C4FF0A40E08270026CF
:103810000C468846DFE801F02D0320200D1702F149
:10382000E40E02241FFA8EF34FEA93284FEA930C1A
:103830001FE001264FF0190C4FF0640E00270324FF
:103840004FF0010815E04FF002084FF0190C4FF04F
:10385000640E002701260BE04023082700268B403A
:1038600003F1640E1FFA8EF34FEA93284FEA930C8C
:10387000032490F8265090F83D3005F0F3053D43C1
:1038800080F8265076B103F01C0343EA411141EA67
:10389000540180F83D1090F83E1001F07F0141EA9C
:1038A000C4110FE001F0070103F0E30343EA8101D3
:1038B00090F82D3080F83D1090F83E1003F08F0303
:1038C00080F82D3080F83F20C2F3052201F0C001BE
:1038D00090F8373080F836C0114490F8352080F8E1
:1038E0003E1008F00F0102F0F002114480F835108C
:1038F00003F03F0141EA8E1180F83710BDE8F081F6
:1039000090F8353090F8342003F00F0302F07C0279
:1039100043EA0113C1F30111114480F835308031BD
:1039200080F8341070470000B0B50B4B64210022C2
:1039300094B28DB22C1B022C0ADB02EB5404A5B20C
:1039400053F82550854204D02CBF21462246EFE78C
:103950001446A0B2B0BD00BF50A1000803480068E3
:1039600020F010000149086070470000580802402C
:10397000014601290BD10F480068C8B90D484C38E1
:10398000006840F004000B4A4C3A106010E0022935
:103990000ED108484C38006800F0040030B10548EA
:1039A000006808B1002070470120FCE70020FAE71A
:1039B0000020F8E75408024030B50A4600210928E3
:1039C00013DC01461E4B1B6801EB41050724AC408C
:1039D000A3431B4C236023461B6801EB410402FAFE
:1039E00004F42343164C236028E0112817DCA0F1CF
:1039F0000A01134B1B1F1B6801EB41050724AC4058
:103A0000A3430F4C241F236023461B6801EB410492
:103A100002FA04F423430A4C241F23600EE0084BEF
:103A20004C331B6801EB41050724AC40A343044C15
:103A30004C34236023461B681343236030BD0000D1
:103A40001008024070B505460C4602F0DBFA3DB99D
:103A500002F0E4FA204602F0C9FAFFF77FFF04E023
:103A6000204602F0E5FA00F053F970BD0348006803
:103A700020F0020001490860704700000808024079
:103A80000348006840F002000149086070470000E8
:103A9000080802400348006840F48070014908604B
:103AA00070470000080802402DE9F84F05460C4613
:103AB0000026B3460020009080468146824600BF23
:103AC00019E04FF4A00000F03BF900BF20220221D2
:103AD000012000F06BF80028F8D0022000F05EF81A
:103AE0000B48B0F816B0078B408B0090D844B9440F
:103AF00000988244761CA642E3D3B8FBF4F02880F9
:103B0000B9FBF4F06880BAFBF4F0A880BDE8F88F48
:103B1000280300200549096821F40061034A116067
:103B2000114609680143116070470000080802400F
:103B30000549096821F00301034A1160114609682B
:103B4000014311607047000058080240B0F5801F23
:103B500005D11149096801430F4A11601BE06FF458
:103B60008011884205D10C49096801400A4A116058
:103B700011E0B0F5004F05D1074909680143064A35
:103B8000116008E06FF40041884204D102490968DD
:103B90000140014A11607047080802400249096863
:103BA0008143014A11607047000802400346012B1F
:103BB00007D108480068084008B10120704700207C
:103BC000FCE7044858300068104008B10120F5E7D0
:103BD0000020F3E70008024000B58BB041F28100FD
:103BE00002F032FA04210020FFF72CFF2849086870
:103BF000091D01F015FC27482749486027488860BF
:103C0000032125480161282200F110016846FEF7D2
:103C10009DFA21480FC801F083F92048163800F0BA
:103C20003FF80320FFF784FF05210920FFF7C4FEBA
:103C30000021092000F0B6F805210320FFF7BCFEA3
:103C40000121032000F0AEF805210A20FFF7B4FEA1
:103C500002210A2000F0A6F8FFF71CFF4FF48010A5
:103C6000FFF774FF00F04AF800BF20224021022035
:103C7000FFF79CFF0028F8D00120FFF779FE00BF76
:103C80000220FFF775FE0028FAD10BB000BD00003E
:103C900054A000084C080240F00200203E0300201F
:103CA00000B50346187810B100F01EF801E000F0EE
:103CB00011F8587810B1FFF7E3FE01E0FFF7D6FEE8
:103CC000586800F061F89868FFF724FFD86800F0A2
:103CD00029F800BD0348006820F48070014908609D
:103CE00070470000040802400348006840F48070F8
:103CF000014908607047000004080240034800685A
:103D000040F00100014908607047000008080240C7
:103D10000348006840F01000014908607047000047
:103D2000580802400549096821F47001034A1160EE
:103D30001146096801431160704700002C080240D9
:103D40000146B1F5A00F05D10E48006808430D4AA1
:103D5000106014E06FF4A000814205D109480068AA
:103D60000840084A10600AE0B1F5800F07D1054805
:103D70000068084008B1012070470020FCE70020DF
:103D8000FAE70000080802400549096821F46021AB
:103D9000034A116011460968014311607047000031
:103DA0000808024010B5052912DC234A126801EB0D
:103DB00081041F23A3409A431F4B1A601A461268BE
:103DC00001EB810300FA03F31A431B4B1A6032E044
:103DD0000B2917DC184A121F12688B1F03EB830490
:103DE0001F23A3409A43144B1B1F1A601A461268E4
:103DF0008B1F03EB830300FA03F31A430E4B1B1FC5
:103E00001A6018E00C4A083A1268A1F10C0303EB9F
:103E100083041F23A3409A43074B083B1A601A46AA
:103E20001268A1F10C0303EB830300FA03F31A43B6
:103E3000014B083B1A6010BD340802402DE9F041E7
:103E40006A48007878B16A4800686A490968401A87
:103E500040F6B831884206D30020644908706649AC
:103E600008806649087065480078012874D1624866
:103E700004880027342C10D161480088401C604918
:103E800008802A2234215F4800F0DCF8074627B179
:103E90005D480088401C5C490880342C14D153488C
:103EA000007888B1002051490870584908703421C1
:103EB000544801F03BFE01F01FFE00204E490880EF
:103EC0004E490870BDE8F081342C3ED1002F3CD023
:103ED00000204F4908804F4908704C49087001F094
:103EE00083FD064606F03F003F280AD000204249E5
:103EF00008804249087000223146232000F0DEF895
:103F0000E0E734213F4801F041FD642001F0FAFC74
:103F100050B90020384908803849087000223146DD
:103F2000232000F0CBF8CDE7002033490880334947
:103F300008702F480068384908600120334908702C
:103F40000022314600F0BAF806E000202A49088035
:103F50002A49087001F018FE2E480078012823D164
:103F60002B48058800202A4908802A4908702748DC
:103F70000078C8B1002025490870172D0CD10D22FA
:103F80001721264800F05EF830B11721234801F0D0
:103F9000CDFD01F0B1FD07E001F026FD80462A4687
:103FA0004146222000F08AF818480078E0B1104815
:103FB000006819490968401AB0F5E16F14D3144834
:103FC00005880020114908701149088011490870BE
:103FD00001F00AFD80460DB9212100E022210846AA
:103FE0002A46414600F06AF800BF6BE7A2000020B5
:103FF0004C000020A40000209A03002006000020AE
:104000009E000020000D0020A00000203C000020A9
:104010009E0300209C03002040000020001100208F
:10402000484000220BE000F0010323B14AF20103F3
:1040300083EA600300E043101846531CDAB2082AF2
:10404000F1D3704770B50346154600260BB10A2917
:1040500001D2002070BD481F84B21878FE281BD101
:104060005878FF2818D19878FF2815D1D878FE28DD
:1040700012D11879A8420FD1081F185CEF280BD174
:10408000C81E185CFF2807D1881E185CFF2803D1C2
:10409000481E185CEF2801D00020DBE7052204E071
:1040A000985C3044C6B2501C82B2A242F8DB185D64
:1040B000B04201D10120CDE70020CBE72DE9FF413F
:1040C00007468846144615A30FCB8DE80F008DF8E0
:1040D00004708DF8098020128DF80A00E0B28DF886
:1040E0000B004FF6FF75012607E01DF80610284665
:1040F000FFF796FF0546701CC6B20B2EF5D92812A5
:104100008DF80C00E8B28DF80D000F21684601F023
:104110000DFD01F0F1FCBDE8FF810000AAC200081E
:104120000042414C4C0000000000550070B52DEDE0
:10413000088B044600EE104AB8EE400ADFED130A81
:1041400080EE201A11EE105A2846FEF7B3F941EC22
:104150001B0B9FED0F0B53EC102BFEF78BF841EC74
:104160001A0B9FED0D0B53EC102BFEF783F841EC6F
:10417000190BFEF7B2F908EE100ABCEEC80A10EEF1
:10418000100A80B2BDEC088B70BD000000F07F45C6
:104190006666666666660A400000000000408F4062
:1041A00070B504460D46102106480068FFF77CFCF8
:1041B00005488088208004498888FFF7B7FF288059
:1041C00070BD0000EC020020E402002010B51B4985
:1041D000881EFFF7E5FF19481838008B40F6B83104
:1041E000884203DB03201649C87726E013481838B5
:1041F000008B40F6B83188420ADA10481838008B34
:1042000040F6BE21884203DB02200D49C87714E046
:104210000A481838008B40F6BE2188420ADA07485F
:104220001838008B40F6C411884203DB0120044992
:10423000C87702E000200249C87710BDFA0A0020C2
:10424000000B00208A7840FA02F2CA72B1F8072007
:104250008B78C3F105039A40CB7A9A4202DD0A2299
:10426000CA720CE0CA798B78C3F105039A40CB7A05
:104270009A1ACA72CA7A0A2A01DA0A22CA727047DC
:1042800010B5A1210348FDF77AFFA1210248FDF7EF
:1042900076FF10BDE00500208106002070B50246C3
:1042A0000C46FF25FF2309E012F8010B80EA050107
:1042B0000648405C80EA03050548435C201EA4F1E3
:1042C0000106B4B2F0D143EA052070BD4495000860
:1042D0004496000810B504463CB1084A928891B251
:1042E000064A106801F0C9F806E0044A928891B2C3
:1042F000024A106801F0BFF810BD0000D89800080D
:104300002DE9F84F05460F464FF4967A4FF4487B57
:104310005148B0F8668090F800900146052001F001
:10432000EBF84D48B0F86600404505DA142004F07B
:10433000BFFE02F0EBFB07E04748B0F866004045DF
:1043400002DD142004F0B4FE4448007820B1444853
:10435000016844A004F032FA062068778020688360
:104360003D49284602F09CFA287F3B4901F0C4F8F9
:104370003948FFF737F838480078484502D03648C2
:1043800002F0ECFC002635E04FF4AB7132486830A7
:10439000FDF7F5FE02F044FD30480078002821D0FA
:1043A0002B7F2D48D0F89A21817839A004F006FAA5
:1043B000002412E03E4800EBC400C08800903C4856
:1043C00000EBC40083883A4800EBC4000268214631
:1043D00038A004F0F3F9601CC4B21F4890F89F01A4
:1043E000A042E7DC4FF4967239461B4803F0BAFA54
:1043F000701CC6B2032EC7DB1749002001F07CF801
:10440000154802F0ABFC0A2004F052FE1348007875
:1044100020B11348016830A004F0D0F997F85A0091
:1044200050B10E48007820B10D48016837A004F063
:10443000C5F90120BDE8F88F0848007820B1084888
:1044400001683BA004F0BAF94FF4AB710248683040
:10445000FDF795FE0020EDE7C00700205D0000207D
:10446000480000202A2A636C6F73652072616E67B2
:104470006520646574656374696F6E20737461721E
:10448000742C2074696D655461673A25640A0000D4
:104490007265733D25642C2073686F743D25642C10
:1044A000204C61736572506F7765723D25640A0018
:1044B000600900204563686F25643A20646973745D
:1044C0003D25642C20656E67793D25642C20534E74
:1044D000523D25640A0000002A2A636C6F73652030
:1044E00072616E67652068696768207265736F6CBA
:1044F0007574696F6E207363616E20656E642C2025
:1045000074696D655461673A25640A002A2A636CF0
:104510006F73652072616E6765206465746563748E
:1045200065642C2074696D655461673A25640A00DE
:104530002A2A636C6F73652072616E676520656EF1
:10454000642C2074696D655461673A25640A000023
:10455000002000BF23E0411C01EB4101184A02EB9F
:10456000810100EB4002164B03EB8202916000EBED
:1045700040011A4602EB8102411C01EB410103EBB1
:1045800081014A6000EB40011A4602EB810148704C
:10459000002100EB400203F82210411CC8B2092898
:1045A000D9DB074A11464A676C315160002182F815
:1045B0006C100922024981F86D20024A116070478F
:1045C0004C0C0020A800002000B5FFF7C1FF0248F6
:1045D000006800F003F800BDB00000200021017069
:1045E00041700B2181700021C170704772B61E4866
:1045F000C06940F080501C49C8611C48006840F404
:1046000080701A4908601A481A49086000BF00BF44
:1046100000BFBFF34F8F00BF00BF00BF00BF00BF90
:1046200000BFBFF36F8F00BF00BF00BF00BF00BF60
:1046300000BF00BF00BFBFF34F8F00BF00BF00BF70
:104640000D48006800F4E0600C490843001D0A4969
:10465000086000BF00BF00BFBFF34F8F00BF00BFA7
:1046600000BF00BF00BFFDE7001002400070004027
:104670004232334E742800400CED00E00000FA0591
:1046800010B50246002114460023022104E0605CBC
:10469000184483B2481CC1B20629F8DDD8B210BD57
:1046A000F0B50446002500260027E07800287AD0DF
:1046B0004B4800780F280EDA2178494802780078B4
:1046C000401C474B18704748815447480078401CAD
:1046D0004549087007E0012044490870002040491E
:1046E0000870414908704048007808285BDB3D4865
:1046F0003F49097808443F49096802680A604068F0
:1047000048603C480068FFF7BBFF0746394800682F
:10471000C079B8421CD101203449087000203249C8
:1047200008702F4908700120A0700020E070314807
:10473000006880783049096848712F48006800F0A7
:104740005DF828480021016041608160C1602AE075
:104750000026022513E02348405D55280DD121494C
:10476000681C085CAA2808D11F480078401B1E4915
:1047700008701F480570012603E0681CC5B20A2DA9
:10478000E9DB00BF7EB901201849087000201649F6
:1047900008700120A0700020E07012480021016024
:1047A00041608160C1606078552818D12078AA28BE
:1047B00015D10E48007890B100200C490870A07007
:1047C0000120E07060780749087020784870022066
:1047D0000549087002490870002005490870F0BDBD
:1047E000D9000020F00C0020D8000020DA000020C2
:1047F000DB000020C8000020BC00002000210B22AC
:1048000082710022C27100BF0AE042790E4B5B5CEC
:104810009A4203D181710122027103E04A1CD1B294
:104820000B29F2DB00BF4279882A05D04279892A18
:1048300002D042798E2A01D10122027282790B2A9A
:1048400001D00122C27170473C980008002101701C
:104850004170012181700021C170017141710B21F2
:10486000817100210172C171818100228273C27342
:104870000261704700210B22827000BF10E00278B5
:10488000094B13F811309A4208D14278064B03EBDA
:1048900041035B789A4201D1817003E04A1CD1B296
:1048A0000B29ECDB00BF70472498000810B501F01D
:1048B000EFFDFFF789FE02480068FFF7C7FF10BD54
:1048C000BC0000202DE9F04F87B00446894616460B
:1048D0001F464FF0C80B502006904FF6E850059049
:1048E000642004903C20039049F640400290CB485D
:1048F0000078002825D01EB9C9A003F05FFF10E0A2
:10490000012E03D1C9A003F059FF0AE0022E03D102
:10491000C9A003F053FF04E0032E02D1CCA003F0A2
:104920004DFFCEA003F04AFF012E01D0022E03D18D
:10493000617FCDA003F042FFCF480168CFA003F014
:104940003DFF0020A077E077032E04D1B4F80F00DC
:104950001FFA80F803E0B4F80B001FFA80F8022E6B
:104960000BD1B4F8090060830020C84988724FF465
:10497000AB71C6486830FDF702FC032E07D1C3486F
:10498000D0F89A01800A8002C0F38F006083608BA8
:10499000B4F80910884202DAB4F809006083BB4811
:1049A000807A28B90021B948C0F89A1100203870DF
:1049B000AEB94FF0000A0EE0B448FEF713FD02F066
:1049C0002FFA0120B14988723878401C38700AF1FA
:1049D000010000F0FF0ABAF1020FEDDBB8E0B0E031
:1049E000387801280DDD608BB0F5004F06DA608B5A
:1049F0004FF6FF7101EA4000608302E04FF6FF705E
:104A00006083206A618B0844404503D9208CA8EB61
:104A100000006083608B9D49A1F803000846FEF703
:104A2000E1FC02F0FDF91EB1206A618B08442062AE
:104A3000012096498872B9F1000F07D1084690F815
:104A40009F01002874DD0120A07771E0B9F1010F0A
:104A50002ED18E4890F89F01002869DD0120A077B3
:104A600000251FE08A4800EBC500C088C82807DA87
:104A7000874800EBC50000684FF6E85188420DD327
:104A8000834800EBC500C088502809DA804800EB55
:104A9000C50000684FF6E851884201D30020A07796
:104AA000681CC5B2794890F89F01A842DADC3FE063
:104AB000B9F1020F3CD1754890F89F01012806DC3E
:104AC0007248B0F8A60141F28831884228DD012001
:104AD000A07700251FE06E4800EBC500C088642861
:104AE00007DA6B4800EBC500006849F64041884290
:104AF0000DD3674800EBC500C0883C2809DA64483C
:104B000000EBC500006849F64041884201D300200F
:104B1000A077681CC5B25D4890F89F01A842DADC16
:104B20005A48D0F89A01B0F57A7F01D20020A077D8
:104B30003878401C3870206A404502D30120E07765
:104B400005E0A07F18B9E07F00283FF449AF00BF1F
:104B50003248007800285ED01EB931A003F02EFE46
:104B600010E0012E03D131A003F028FE0AE0012E4F
:104B700003D131A003F022FE04E0032E02D134A0C1
:104B800003F01CFE414890F89F113B48026841A089
:104B900003F014FE3D48D0F89A21817846A003F036
:104BA0000DFE207F10B94CA003F008FE207F0128E5
:104BB00002D14CA003F002FE207F022802D14BA0BC
:104BC00003F0FCFD207F032802D14AA003F0F6FD8C
:104BD000207F042802D149A003F0F0FD2AA003F0B1
:104BE000EDFD002512E02A4800EBC500C0880090CA
:104BF000274800EBC5008388254800EBC500026804
:104C000029463FA003F0DAFD681CC5B21F4890F8A2
:104C10009F01A842E7DC07B0BDE8F08F5D000020EF
:104C20002A2A70696C6F7420000000002A2A7365BC
:104C30006E636F6E642000002A2A73656E636F6E68
:104C40006420466C616752657065617420000000E5
:104C50002A2A656E68616E636520000072756E2099
:104C60007374617274000000207769746820636156
:104C70007365256400000000480000202C20746942
:104C80006D655461673A25640A000000C007002082
:104C90006009002072756E206F76657220776974E6
:104CA000682076616C69643D25642C2074696D65AB
:104CB0005461673A25640A007265733D25642C20AF
:104CC00073686F743D25642C204C61736572506F5E
:104CD0007765723D0000000053686F727450756C08
:104CE000736500004D656469756D0000486967680B
:104CF00000000000556C7472610000004D61780086
:104D00004563686F25643A20646973743D25642C9B
:104D100020656E67793D25642C20534E523D2564F5
:104D20000A00000041607047016821F00101016044
:104D30007047016841F001010160704701617047EF
:104D4000026822F02002026002680A430260704793
:104D5000026822F01002026002680A430260704793
:104D60004160704702461068084008B9002070474B
:104D70000120FCE710B504460B462046196800F0F8
:104D80004BF82046596800F035F820469968FFF73F
:104D9000DFFF2046D968FFF7C5FF2046196900F0FC
:104DA00033F82046596900F01DF82046996900F053
:104DB00035F82046D96900F01FF82046196AFFF738
:104DC000BFFF2046596A00F031F82046996A00F08A
:104DD00001F810BD026822F48042026002680A43B2
:104DE00002607047026822F08002026002680A4393
:104DF00002607047C1607047026822F4406202603E
:104E000002680A4302607047026822F040020260B2
:104E100002680A430260704781607047026822F4AA
:104E20004072026002680A4302607047026822F41E
:104E30004052026002680A4302607047016821F034
:104E4000010101600021016041608160C16033495E
:104E5000884208D131490839496841F00F012F4A89
:104E6000083A516059E02D491431884208D12B4944
:104E70000839496841F0F001284A083A51604CE08D
:104E800026492831884208D124490839496841F423
:104E90007061224A083A51603FE020493C31884223
:104EA00008D11E490839496841F470411B4A083A43
:104EB000516032E019495031884208D11749083908
:104EC000496841F47021154A083A516025E01349B8
:104ED0006431884208D111490839496841F47001A8
:104EE0000E4A083A516018E00C497831884208D1DE
:104EF0000A490839496841F07061084A083A516026
:104F00000BE006498C31884207D1044908394968C9
:104F100041F07041014A083A516070470800024070
:104F20000FB410B50298FFF789FF03A90298FFF7A5
:104F300021FF0F990298FFF701FF0298FFF7F9FE92
:104F400010BC5DF814FB000070B50446002C70D056
:104F500002205C49087020215A480173C172452122
:104F60008172722141727220564908720220887340
:104F70000120C873022088734874012048770020FC
:104F8000887781F8200081F82100012C26D1486122
:104F900020214C48C17643218176012141760020B1
:104FA0004849087619E000204749086047A003F007
:104FB00005FC002506E04C48415D4CA003F0FEFBDB
:104FC000681CC5B2092DF6DB49A003F0F7FB00BF52
:104FD0003D480068B0F5FA6FFAD3E4E7072C29D111
:104FE00000203849486120213648C1760521817664
:104FF0004C21417646203349087619E00020324999
:1050000008603CA003F0DAFB002506E03648415D6D
:1050100036A003F0D3FB681CC5B2552DF6DB34A0D7
:1050200003F0CCFB00BF28480068B0F5FA6FFAD354
:10503000E4E745E0082C14D10020224948612021F2
:105040002048C176552181766221417664201D4930
:10505000087625486838D0F85E112EA003F0AEFB24
:105060002EE0092C03D135A003F0A8FB28E00A2C80
:1050700026D100201349486120211248C17607211A
:1050800081767221417609200E49087617E00020CA
:105090000D49086032A003F091FB13486838D0F83E
:1050A0005E0118B933A003F089FB02E038A003F0D9
:1050B00085FB00BF04480068B0F5FA6FFAD3E6E755
:1050C00070BD0000000B002048000020636869707C
:1050D000204944206572726F722E205350495F62DE
:1050E00075666665723A2000280800202564200055
:1050F0000A00000073656C66207465737420657225
:10510000726F722E205350495F6275666665723AFF
:1051100020000000566264205363616E2065727245
:105120006F722E20566264206F7574206F66207235
:10513000616E67653D25642E0A0000004572726F3E
:1051400072212044697374616E63652063616C69C8
:1051500062726174696F6E206661696C0A0000009A
:1051600054726967205363616E206572726F722E8C
:10517000200000004E6F2070756C736520726563AF
:1051800065697665642E20456467653D300A0000D8
:105190004265796F6E642074686520746F6C657207
:1051A00061626C652072616E67652E0A0000000006
:1051B0000249C9680143014AD1607047002002409A
:1051C00000B50246042300F041F8034603E000F076
:1051D0003DF80346521E012B01D1002AF7D102B936
:1051E0000723184600BD00000348006940F0800016
:1051F00001490861704700000020024030B50446B4
:1052000004253420FFF7D4FF4FF43020FFF7D8FFF8
:105210000546042D16D10C48006940F002000A49E9
:10522000086108464461006940F0400008614FF49D
:105230003020FFF7C5FF05460348006920F0020053
:1052400001490861284630BD0020024004200B4976
:10525000C96801F0010109B101200EE00749C968E0
:1052600001F0040109B1022007E00449C96801F016
:10527000100109B1032000E0042070470020024023
:105280000248034948600348486070472301674566
:1052900000200240AB89EFCD70B504460D460426D0
:1052A00004F0030008B1062070BD3420FFF780FF32
:1052B0004FF40050FFF784FF0646042E10D1094832
:1052C000006940F00100074908612560F002FFF71E
:1052D00077FF06460348006920F001000149086194
:1052E0003046E1E70020024030B50346002002F0DE
:1052F000080464B1586A5407E50E0F24AC40A0437B
:105300005407E40E01FA04F4204358620BE0186AD3
:105310005407E50E0F24AC40A0435407E40E01FAF5
:1053200004F42043186230BD30B50B460021C16A39
:1053300055000324AC40A143540003FA04F4214374
:10534000C16230BD00B587B04FF4F06000F07CFE64
:1053500016490868091D00F063F815490868091D19
:1053600000F05EF813490868091D00F059F8124969
:105370000868091D00F054F810490868091D00F07C
:105380004FF80F490868091D00F04AF80D490868F0
:10539000091D00F045F8102001900120029001A99C
:1053A000094800F03DF807B000BD0000689800080B
:1053B00084980008A0980008BC980008D8980008B5
:1053C000F49800081099000800380240024610695D
:1053D000084008B1012070470020FCE770B5034683
:1053E00000200024186801F0030456000325B5408E
:1053F000A843550004FA05F528431860012905D093
:10540000112903D0022901D0122908D15868012599
:105410009540A843C1F3001595402843586070BDDE
:10542000F0B506460C46002500271FE00121A940E3
:10543000206800EA0107C7B12A4630466169FFF7D4
:1054400053FF2A4630466168FFF7C8FF2A463046B8
:10545000A16800F014F82A463046E16800F01DF813
:105460002A4630462169FFF75FFF6D1C2068E8403F
:105470000028DBD1F0BD816270478161704730B593
:105480000B460021C16855000324AC40A1435400E1
:1054900003FA04F42143C16030BD10B50B4600216E
:1054A000816801249440A14303FA02F421438160FE
:1054B00010BD000010B504463CB1084A928891B274
:1054C000064A1068FFF7D9FF06E0044A928891B2B5
:1054D000024A1068FFF7CFFF10BD0000BC9800081B
:1054E00000BFFEE710B54FF480710248FFF76EFF72
:1054F00010BD00000034024070B505460C4647F26E
:10550000305104F15800A4F866102DB900206072E3
:105510001848007B207028E0012D02D10020607225
:1055200023E0022D02D1012060721EE0032D02D182
:105530000220607219E0042D02D10320607214E091
:10554000052D0BD142F2107104F15800A4F8661039
:10555000002060720748407B207006E0062D04D1D1
:10556000002060720348407B2070B4F8660003F0AE
:10557000A5F870BDB40A002010B504462CB9FFF799
:105580007FFE064802F09DFF06E0012C04D1FFF7E4
:105590002BFE024802F09AFF10BD000000380140C7
:1055A00010B504463420FFF703FE2046FFF726FE21
:1055B0000149086010BD0000880000202DE9F04777
:1055C00080468A461446A70804F0030018B101205B
:1055D00000EB940700E0A708B9464FEA890003F002
:1055E000D3FE0646224651463046FCF7AFFD002565
:1055F00009E056F8251008EB8500FFF74DFE054938
:105600000860681CC5B2BD42F3D3304603F014FEF7
:10561000BDE8F0878800002010B5FFF793FEFEF785
:10562000DBFA02F031FC202000F01EF800F012F945
:1056300000F002FA0020FFF73DFF10BD10B5044650
:105640003CB1084A928891B2064A1068FFF713FFEE
:1056500006E0044A928891B2024A1068FFF70DFFF3
:1056600010BD0000DC00002010B58AB004464FF4E5
:10567000805000F0F9FC40F2811000F0E5FC284970
:105680000868091DFFF7CCFE26490868091DFFF7C9
:10569000C7FE25490868091DFFF7C2FE23490868AF
:1056A000091DFFF7BDFE224800680C302149486003
:1056B0001F4800680C302049486028221D491031DD
:1056C0006846FCF743FD1B480FC8FFF729FC28225A
:1056D000194910316846FCF739FD17480FC8FFF724
:1056E0001FFC1349086802F013F81248104988613A
:1056F0001148C861084604820868091D02F01EF8B6
:105700000B490868032101F0FFFF0949086802F00E
:105710004AF80749086802F041F80AB010BD0000D5
:10572000F80000203001002014010020DC000020DF
:105730004C01002070010020A801002010B5044693
:105740003CB1084A928891B2064A1068FFF793FE6E
:1057500006E0044A928891B2024A1068FFF78DFE73
:1057600010BD0000E00100202DE9F04104460F4685
:1057700015461E4620492068884202D10120FFF7C5
:105780005DFF1E492068884202D10120FFF7D6FF45
:10579000052003F0BBFCA1690868FFF7C5FAE169C1
:1057A0000868FFF7C1FAA16908683146FFF7BAFA3D
:1057B000E16908683146FFF7B5FAA169086839461A
:1057C000FFF718FBE16908682946FFF713FBA0699A
:1057D000016B0B48FFF7C4FAE069016B0848FFF75B
:1057E000BFFAE1690868FFF7A4FAA1690868FFF742
:1057F000A0FABDE8F081000000300140003C01400B
:105800000000024070B504460D4600BFA069016B60
:105810000D48FFF7A7FA0028F8D000BFE069016B38
:105820000948FFF79FFA0028F8D008492068884205
:1058300002D12846FFF702FF05492068884202D1BD
:105840002846FFF77BFF70BD00000240003001409A
:10585000003C014000B58BB0012000F0F5FB80203A
:1058600000F0F2FB012000F0FFFB4FF4804000F05D
:10587000FBFB20490868091DFFF7D2FD1E49086897
:10588000091DFFF7CDFD1D490868091D02F036FE10
:105890001A49086840F2255102F04CFE1749086881
:1058A000802102F001FE164814494861084600684C
:1058B000001D496948602822114910316846FCF7EB
:1058C00045FC0F480FC8FFF72BFB24208DF828005C
:1058D00001208DF8290000208DF82A0001208DF884
:1058E0002B000AA800F0E6FA0449086802F0EEFD71
:1058F0000BB000BDA0030020BC030020100400205A
:105900005004002070B504461B4805681B4E15E086
:1059100019480068401BA04202D2701E061E0DD11D
:105920001748006840690068006820F001001449C9
:105930000968496909680860002070BD104800685E
:105940004069016B0F48FFF70DFA0028E0D00B4EBD
:1059500009E009480068401BA04202D2701E061EE2
:1059600001D10020E9E708490868402102F0B6FDAE
:105970000028EED00120E0E74C00002000127A0061
:105980004C0400200000024030040020144A126839
:1059900052691268126822F00102114B1B685B69A0
:1059A0001B681A600E4A126852691268D0600C4A6D
:1059B0001268526912685160094A12685269126B82
:1059C000084B5A60064A126852691268126842F01F
:1059D0000102034B1B685B691B681A60704700007B
:1059E0004C040020000002400020124B1988114B8B
:1059F00008331A8801F400530BB140F0010001F0A4
:105A000004030BB140F0020001F008030BB140F0B9
:105A1000040001F020030BB140F0080001F0100376
:105A20000BB140F0100002F080030BB140F02000F9
:105A3000704700000C44004000B58BB0012000F01E
:105A400003FB4FF4807000F0FFFA012000F00CFB24
:105A50004FF4003000F000FB23490868091DFFF7F0
:105A6000DFFC22490868091DFFF7DAFC20490868B5
:105A7000091D02F043FD1E49086840F2255102F05D
:105A800059FD1B49086840F2244102F053FD1849B2
:105A90000868802102F008FD16481549486108464B
:105AA0000068001D49694860282212491031684683
:105AB000FCF74CFB0F480FC8FFF732FA25208DF892
:105AC000280002208DF8290000208DF82A000120EE
:105AD0008DF82B000AA800F0EDF90549086802F0DE
:105AE000F5FC0BB000BD0000D8030020F40300203B
:105AF000300400208804002010B500BF084800686A
:105B00004069016B0748FFF72DF90028F6D000BF68
:105B100005490868802102F0E1FC0028F8D010BD9A
:105B20002C0400200000024010040020144A1268D7
:105B300052691268126822F00102114B1B685B69FE
:105B40001B681A600E4A126852691268D0600C4ACB
:105B50001268526912685160094A12685269126BE0
:105B6000084B5A60064A126852691268126842F07D
:105B70000102034B1B685B691B681A6070470000D9
:105B80002C0400200000024070B500262448007854
:105B9000022840D12248407806283CD12048C078CD
:105BA0001F49897840EA01251D4840791C49097937
:105BB00040EA01241A48C0791949897940EA012646
:105BC00006211748FEF76AFBB04224D1A5F58050A4
:105BD000103806281ED2DFE800F003090D11151950
:105BE00010480068048003F05BFC13E00D48006877
:105BF00044800FE00B48006884800BE0094800688F
:105C0000C48007E007480068048103E00548006895
:105C1000448100BF00BF03F043FC002070BD0000C2
:105C2000000D00200000002027A002F0C7FD00208A
:105C30002B4908700120487044E02A480068632816
:105C400005D900202749086003F01EFB04E0254821
:105C50000068401C2349086023480068401C224912
:105C60000860FEF7EBF821480068C08810B10128F1
:105C700027D119E01D4800680088012813D10020B1
:105C80001A490968088000F01FFF19490880084672
:105C900000883C2801DC00200880154801884FF46A
:105CA000815003F0A7FB0CE0104800680088012831
:105CB00006D100F083FF04460CB901F0E5FE00BFF9
:105CC00000BF00BFB9E70000456E746572204F70D9
:105CD00065726174696F6E204D656E752E0D0A00D8
:105CE000E20A002070000020940000200000002044
:105CF0008200002010B5FEF7C3FA01F099FE0349B7
:105D0000034801F063F8FEF7D1FD10BDB40A00208E
:105D1000C007002010B5FEF759FA10BD70B5002578
:105D20003DA002F04BFD0020414908604149B1F817
:105D3000660002F0C3FC00F00DFF044614B12046DB
:105D4000FFF702F93B48FDF7FFFA3A4801F006F881
:105D50000820FFF789FC01F0C5F9044614B120467C
:105D6000FFF7F2F83449334801F04EF83148007833
:105D70002D2809DB01F048FB04460CB901250EE093
:105D80002046FFF7E1F80AE02A4801782BA002F04C
:105D900015FD2848FDF726FB264800F0DFFF2549C2
:105DA0005C31881C02F0D6F92249B1F8600002F09B
:105DB000C6FC98B901F0A4FA04465CB91D48B0F8D5
:105DC00060001D4908810846018925A002F0F6FC03
:105DD000012518E02046FFF7B7F814E01548B0F8A1
:105DE000601026A002F0EAFC134801891148A0F8CF
:105DF000601001F06FFA0F49B1F8640002F0ACFCDA
:105E00000A2003F055F90DB101F03EFE22A002F088
:105E1000D5FC03F02FFB70BD537461727420746F56
:105E200020696E697469616C697A652E0A000000E8
:105E300048000020C0070020B40A00206C6F616495
:105E40002066726F6D206D656D6F72792E204C44E7
:105E5000356E735F73657474696E673D25640A00FF
:105E6000456E64206F6620566264205363616E2E17
:105E7000205662643D25640D0A0000006C6F616469
:105E80002066726F6D206D656D6F72792E2056429F
:105E9000443D25640A000000456E64206F66206959
:105EA0006E697469616C697A6174696F6E0A000069
:105EB0007047000070B5002100230F22C47804B39E
:105EC000154C246804F4E064C4F5E064210AC1F1CF
:105ED0000403CA40447804FA03F18478144021434F
:105EE00009010E4C0678A155047804F01F05012421
:105EF000AC4005786D11AD0005F1E025C5F8004115
:105F000009E0047804F01F050124AC40044D067834
:105F1000761145F8264070BD0CED00E000E400E08D
:105F200080E100E02DE9F8431B4C002000900027A1
:105F30001A48006820F08000184908600846006888
:105F400040F04000086069461548A0470098C0B27C
:105F5000052819D869461348A04700984FEA1068E9
:105F6000009800F47F00050A009800F47F400602C4
:105F700048EA0500304300900B48006800F07F4776
:105F800000980743084807600448006840F0800014
:105F900002490860BDE8F883A502FF1F0020024007
:105FA00020F0FF1F30F2FF1F04180040704710B5AB
:105FB000012002F06DFB012003F046FA0A2003F0F5
:105FC00077F84BF2347002F0C7FB41F6060002F09E
:105FD00075FB012003F06CF80120FFF76BFA0A2033
:105FE00003F066F80120FEF775F910BD01460020A8
:105FF000034AD06A20F00F000843D06270470000C7
:10600000001002400448006840F001000249803955
:10601000C1F8800070470000801002400348C06A49
:1060200020F480700149C8627047000000100240EF
:1060300001460020034AD06A20F4F8700843D06279
:106040007047000000100240024949690143014ABB
:1060500051617047001002400249C9690143014A79
:10606000D161704700100240024989690143014A29
:1060700091617047001002400449C9680143034A16
:10608000D1601146C9688143D16070470010024059
:10609000F0B5002200BF0021002500243B4E7668A9
:1060A0003B4F06EA0701394E766806F4803501F069
:1060B00000661EB9022606EB914104E04FF4F87623
:1060C000C6EB9146711C65B9304E366C06F0010680
:1060D0001EB1304E01FB06F30FE02F4E01FB06F31D
:1060E0000BE02A4E766806F400361EB1294E01FBFD
:1060F00006F302E0284E01FB06F3244E766806F014
:106100000C0222B1042A05D0082A08D105E0224E4B
:10611000066007E0204E066004E0036002E01E4EC9
:10612000066000BF00BF194E7668C6F303121B4E0F
:10613000B45C0668E6404660144E7668C6F30222F8
:10614000164EB45C4668E6408660104E7668C6F32C
:10615000C222124EB45C4668E640C6600B4EF66A38
:1061600006F00F020E4EB45C4668B6FBF4F64661CC
:10617000064EF66AC6F3041202F00F06094F37F80E
:106180001640B3FBF4F60661F0BD000000100240BB
:1061900000003C0800093D0000127A00E0A0000861
:1061A000F0A0000800A1000801460020034AD06AC0
:1061B00020F000500843D0627047000000100240F9
:1061C0002DE9F04706465448008858B15348006806
:1061D00053490968401A642804D900204E490880B0
:1061E000504908804C48008878B9AA2E02D0002077
:1061F000BDE8F0874C4806700120474908804748B1
:106200000068474908600120F2E7444800684449B3
:10621000086041480088172806D300203E490880BE
:10622000404908800120E3E73B4801880088401C82
:10623000394A10803C4846541046008804281AD138
:106240003948C0783849897840EA01243648457889
:10625000102C0DD90020114608803249088045F0E5
:10626000800000231A46022100F0E6F90120BFE772
:10627000E01D2C4908802B48008828B1264800885A
:1062800028490988884201DA0120B1E72648457883
:10629000C0782549897840EA012400201E490880F9
:1062A000204908802049A01D085C552808D045F0E9
:1062B000800000231A46042100F0BEF9012097E770
:1062C0004FF6FF78012707E01748C15D404600F010
:1062D0002DF88046781C87B2201D80B2B842F3DCCE
:1062E0001149601D095C104A201D105C41EA00291B
:1062F000C14508D045F0800000231A46042100F073
:106300009BF9012074E722460749091D284600F041
:106310001FF801206CE70000B40000204C000020B2
:10632000B8000020B6000020C40C00204840002225
:106330000AE000F0010323B14AF2010383EA60009E
:1063400000E04010531CDAB2082AF2DB704700006C
:106350002DE9F04105460E46144645F08007312DE3
:1063600004D0382D1BD03A2D72D139E0042C06D040
:1063700000231A460221384600F05EF90EE004229E
:1063800038A1304600F090F830B900231A460321B6
:10639000384600F051F901E000F0B2F85FE0042C5B
:1063A00006D000231A460221384600F045F916E0CF
:1063B00004222EA1304600F077F830B900231A46A7
:1063C0000321384600F038F909E000F08BF8234645
:1063D00032460021384600F02FF9FEF707F93EE07B
:1063E000042C06D000231A460221384600F024F976
:1063F0002CE004221FA1304600F056F878B100F0DE
:1064000071F81E4800681E49086001201D49087087
:10641000234632460021384600F00EF916E00422E9
:1064200019A1304600F040F840B100F05BF8234677
:1064300032460021384600F0FFF807E000F052F83D
:10644000234632460321384600F0F6F807E0FFE71E
:1064500000231A460121384600F0EEF800BF00BFC5
:10646000BDE8F0814E333242000000004E3332412D
:10647000000000004543484F000000004C00002091
:10648000A4000020A200002053544F500000000040
:10649000024803490860034808607047C597000830
:1064A0008C000020E897000830B503460C46002118
:1064B00007E0585C655CA84201D0002030BD481C54
:1064C00081B29142F5DB0120F8E70A1202704170B7
:1064D00070470A0E02700A0C42700A0A8270C1707C
:1064E00070470000002003490870034908800349F1
:1064F00008707047A20000209A03002006000020C8
:10650000F0B589B0202101A8FBF739FEB12721247D
:106510003F4901A8FFF7DDFF4FF4837102A8FFF7A1
:10652000D4FF00210DF10A00FFF7CFFF394903A87E
:10653000FFF7CFFF002104A8FFF7CBFF3648007814
:106540008DF81400354800788DF81500344801881E
:106550000DF11600FFF7B9FF3248016806A8FFF7F2
:10656000B8FF3148018807A8FFF7AFFF2F4801881F
:106570000DF11E00FFF7A9FF2D48018808A8FFF7BD
:10658000A4FF2C48006881B20DF12200FFF79DFFA7
:10659000AA2000F0A3F8384600F0A0F8201200F07E
:1065A0009DF8204600F09AF8002000F097F84FF68A
:1065B000FF7639463046FFF7B9FE064621123046CF
:1065C000FFF7B4FE064621463046FFF7AFFE06460B
:1065D00000213046FFF7AAFE064600250BE001A980
:1065E000485D00F07BF801A8415D3046FFF79EFE54
:1065F0000646681CC5B2202DF1D3301200F06EF8AB
:10660000F0B200F06BF8552000F068F809B0F0BD6A
:106610004132334E00200008900000200600002088
:106620009A030020980000209C0000209E0000207B
:10663000A0000020940000202DE9F04781468A4602
:1066400016461F464FF6FF78781C84B2AA2000F049
:1066500045F8484600F042F8201200F03FF8E0B25A
:1066600000F03CF8504600F039F849464046FFF744
:106670005DFE804621124046FFF758FE8046E1B29B
:106680004046FFF753FE804651464046FFF74EFE18
:106690008046002509E0705D00F020F8715D4046FD
:1066A000FFF744FE8046681C85B2BD42F3DB4FEA2B
:1066B000282000F013F808F0FF0000F00FF8552034
:1066C00000F00CF800BF4021034801F007FF00284C
:1066D000F9D0BDE8F08700000038014010B504464D
:1066E00000BF8021044801F0F9FE0028F9D02146BE
:1066F000014801F0E2FE10BD003801406421C01CD9
:1067000020F8031C012100F8011C4FF47A7101806C
:10671000C821418010490968818030F8031C322269
:1067200091FBF2F109038160018891FBF2F1090309
:10673000C1604FF48071C18001210174C01E02222A
:10674000027504224275062282750822C275FA215A
:106750000183002101627047480000202DE9F041CB
:1067600006460F4614461D46B4F809006083002013
:1067700060772946204600F093F84FF4AB7105F19D
:106780006800FBF7FCFCBDE8F0812DE9F04106460E
:106790000F4614461D4695F89E11491E05F5C37017
:1067A00000EB4100008800281CDD95F89E21521E58
:1067B00005F5AF7101EB82010868B0F5FA6F02D2FE
:1067C000012161770DE0B0F57A5F02D20221617795
:1067D00007E0B0F5FA4F02D20321617701E004210E
:1067E000617701E0052060772946204600F058F8DF
:1067F000207F60B954F80B0F217AB0FBF1F02060D4
:106800006068217AB0FBF1F060600B3C46E0207FCD
:1068100001280ED1D4F80B10207DB1FBF0F0C4F8A4
:106820000B00D4F80F10207DB1FBF0F0C4F80F007E
:1068300034E0207F02280ED1D4F80B10607DB1FB2C
:10684000F0F0C4F80B00D4F80F10607DB1FBF0F04D
:10685000C4F80F0022E0207F03280ED1D4F80B10DB
:10686000A07DB1FBF0F0C4F80B00D4F80F10A07DB0
:10687000B1FBF0F0C4F80F0010E0207F04280DD128
:10688000D4F80B10E07DB1FBF0F0C4F80B00D4F8A5
:106890000F10E07DB1FBF0F0C4F80F00BDE8F0810F
:1068A0002DE9F04105460C4600206070688BA4F885
:1068B00003006148808A6049498A401A5E49498AD2
:1068C00001EB80001FFA80F8687F80B90520A07076
:1068D0000020A4F80700A0720F20E072574800784B
:1068E00010B157A001F06AFF0220287791E0687F7D
:1068F00006280FD10020A070A4F80700A072FA208B
:10690000E0724E48007810B150A001F057FF05200A
:1069100028777EE094F89E11491E04F5AF7000EBD5
:1069200081000668B4F8A671687F012812D10020A2
:10693000A070B0B2214600F0FFFF0020A0720F202F
:10694000E0723E48007810B146A001F037FF002009
:1069500028775DE0687F02281ED10120A070B0B2C8
:10696000214600F0E9FF0020A07221464046FDF7D5
:1069700069FC3248007810B13FA001F01FFFC82F1A
:1069800002DD0020287743E0322F02DD0120287746
:106990003EE0022028773BE0687F032810D10420E6
:1069A000A0700020A4F80700A072FF20E072234826
:1069B000007810B135A001F001FF0220287727E010
:1069C000687F042811D10520A0700020A4F80700DA
:1069D0000120A0729620E0721848007810B130A013
:1069E00001F0ECFE0220287712E0687F05280FD125
:1069F000A0700020A4F807000120A0729620E07289
:106A00000E48007810B12BA001F0D8FE03202877A3
:106A100000BF687F062804D13F2020730F206073D9
:106A200005E00548807A20730348C07A60732046E9
:106A300000F006FFBDE8F081B40A00200C00002041
:106A400050696C6F7452756E0D0A0000436C6F7361
:106A50006552616E6765446574656374696F6E0D38
:106A60000A0000005365636F6E6452756E43617374
:106A700065310D0A000000005365636F6E64527546
:106A80006E43617365320D0A000000005365636F49
:106A90006E6452756E43617365330D0A0000000029
:106AA0005365636F6E6452756E43617365340D0A8E
:106AB000000000005365636F6E6452756E4361732E
:106AC00065350D0A000000007FB500240025002672
:106AD0000BA0006803900B4A07CA8DE8070001204D
:106AE000094988730846817901231A46184600F03F
:106AF00027FB0A21B0FBF1F4A0B204B070BD000086
:106B000062464C008C970008E20A002010B5052070
:106B1000064988704FF40070A1F803000020487205
:106B20000846FCF75FFC00F07BF910BDC0070020B1
:106B3000B0F85C20A2F6A43202EB8202D2000A2353
:106B400092FBF3F28A1A93B200F15802A0F8603077
:106B50007047000010B500F043FC09230E4A0F49AE
:106B60000F48FEF701FE00210D48FEF74BFE0A48D4
:106B7000683890F8690056280CD10748683890F8B2
:106B80006A00622806D145F2626106A001F016FE95
:106B9000002010BD0120FCE728080020E0050020AF
:106BA0004C01002063686970204944206368656374
:106BB0006B20706173732C2025780A002DE9F04159
:106BC0000427002500269FED1D0B53EC102B1DA064
:106BD00001F0F4FD002411E00023012219461046C3
:106BE00000F0AEFA204890F89F0128B1681CC5B2A9
:106BF0001D48D0F8A0010644601CC4B2042CEBDB95
:106C0000042D15D14FF47A70C0EB96001749888097
:106C10004FF4987088800846818815A001F0CEFD59
:106C20001248818819A001F0C9FD0020BDE8F0815B
:106C300021A001F0C3FD0920F8E7000000000000DA
:106C40000000594073746172742064697374616EDA
:106C500063652063616C6962726174696F6E206143
:106C600074202532666D0A00C0070020B40A002097
:106C70005359535F5354415455532E446973744FC1
:106C800066667365743A2564000000006469737475
:106C9000616E63652063616C6962726174696F6EB5
:106CA00020636F6D706C6574652C206F666673650C
:106CB000743D2564636D0A004572726F7221206411
:106CC000697374616E63652063616C69627261747B
:106CD000696F6E206661696C0A00000010B5164885
:106CE000407818B114484078012810D11248B0F803
:106CF00003001149B1F805104843642190FBF1F0FD
:106D00004FF47A7190FBF1F000F10A0400E01E24C8
:106D100000200A49086008E008480068A04204D939
:106D200007A001F04BFD012010BDFEF7DBFB0028A2
:106D3000F2D100BFF8E70000C007002010000020DB
:106D400054696D656F7574204572726F723A207068
:106D5000696E20494E542E0A0000000010B504460A
:106D600000F03EFB0123174A04F156011648FEF7D6
:106D7000FBFC00211448FEF745FD1423114A04F1E1
:106D80000F011148FEF7F0FC00210F48FEF73AFD15
:106D900011230C4A04F123010B48FEF7E5FC002106
:106DA0000948FEF72FFD0123064A04F13401064885
:106DB000FEF7DAFC00210448FEF724FD082002F06B
:106DC00077F910BD810600204C01002070B5044603
:106DD0000D469FED0C0A10EE100AA0654FF47A7173
:106DE00004F15800A4F8621047F23051A4F866107C
:106DF000011D801D01F0AEF92946204600F004F87F
:106E000070BD0000B03D85400A7B02708A7A027333
:106E1000CA7A42730B8900F15802A0F860307047BB
:106E20001CB5A1213148FBF7AAF931484078042864
:106E300002D02F4800F00CF92D4800F0DDF8FFF7E4
:106E40004DFF2C4908702A4800F05CF8284800F0F3
:106E5000BFF82748407818B92548FBF7D9FD22E04C
:106E600023484078012803D12148FBF77FFD1CBD52
:106E70001F484078022803D11D48FCF723FA12E08E
:106E80001B484078032803D11948FCF757FA0AE059
:106E900017484078052803D015484078062802D1C5
:106EA0001348FCF739FA14480078E0B1104800F0B4
:106EB0003DF812A000680190022101A8FEF736FEFD
:106EC000FEF71AFE4FF43D710948FEF72FFEFEF75C
:106ED00013FE0BA00068009002216846FEF726FE14
:106EE000FEF70AFE00BF00BFC1E70000E00500207A
:106EF000C0070020150000205C000020FA050000FB
:106F0000ABCD000010B5044600200649087055239B
:106F100004F168020448FEF727FC00210248FEF74E
:106F200071FC10BDE00500204C01002070B5054645
:106F300000240123234A05F156012348FEF714FCDF
:106F400000212148FEF75EFCFB201E490870062048
:106F5000487002211B48FEF7E9FDFEF7CDFD00BF9A
:106F60002CE03D2C10D12D23164A18491648FEF767
:106F7000FBFB00211448FEF745FC2D211148FEF7CC
:106F8000D5FDFEF7B9FD17E01CB908200F490870C0
:106F900002E000200D49087064230A4A0B490A48A0
:106FA000FEF7E2FB01210848FEF72CFC64210548AE
:106FB000FEF7BCFDFEF7A0FD601CC4B23D2CD0DD89
:106FC00070BD0000810600204C010020E00500207B
:106FD00010B50446102006490870A12304F1BD0233
:106FE0000448FEF7C1FB00210248FEF70BFC10BD70
:106FF000E00500204C01002010B504460123124A90
:1070000004F156011148FEF7AFFB00210F48FEF7CF
:10701000F9FB607802280AD101230B4A04F15701D9
:107020000A48FEF7A1FB00210848FEF7EBFB052309
:10703000054A04F135010548FEF796FB0021034897
:10704000FEF7E0FB10BD0000810600204C0100208F
:1070500010B504460123214A04F156012048FEF7E9
:1070600083FB00211E48FEF7CDFB06231B4A04F1DB
:107070003A011B48FEF778FB00211948FEF7C2FBD6
:107080000823164A04F140011548FEF76DFB002164
:107090001348FEF7B7FB0323104A04F148011048D8
:1070A000FEF762FB00210E48FEF7ACFB04230B4AFF
:1070B00004F14B010A48FEF757FB00210848FEF790
:1070C000A1FB0323054A04F14F010548FEF74CFBE1
:1070D00000210348FEF796FB10BD0000810600204A
:1070E0004C01002010B50B4800F09FFB0948FCF74D
:1070F00079F9FFF795FE074890F8B80120B106A08E
:1071000001F05CFB002010BD08A001F057FB072038
:10711000F9E70000C007002073656C662074657392
:107120007420706173732E0A0000000073656C6632
:107130002074657374206572726F72210A000000FA
:107140002DE9F041A2B00446884615461E460027A8
:10715000002018905B480078844202D000205A49F1
:1071600008705848047015B100205749087000F0A5
:10717000DFFF19A8FFF7C2FA4FF4AB715348FAF7D3
:10718000FEFF5C2101A8FAF7FAFF01A919A8FDF793
:10719000B7F898B101A919A801F0E8FF012101A8E9
:1071A00002F088F9334601AA47494948009402F0A1
:1071B00003F84748006822B0BDE8F081434B683BC4
:1071C00019AA41462046FFF7C9FA9DF880003F49B9
:1071D0006839FEF791F918AB0022214619A8FDF78E
:1071E00071FB3A4B683B19AA41462046FFF7CDFA9E
:1071F0009DF8800035496839FEF77EF918AB012209
:10720000214619A8FDF75EFB022C26D1002201A918
:107210002E48683800F0A6FB00271CE02198DDF816
:107220006F10890801EB4101884206D9DDF86F0033
:107230002199401AB0F57A7F0BD318AB0222214670
:1072400019A8FDF73FFB002201A92048683800F08B
:1072500089FB781CC7B2022FE0DB022C20D09DF8FE
:107260006600B8B19DF88200A0B91848683890F857
:107270009F01002808DD15486838D0F8A001642176
:10728000B0FBF1F0C82805D318AB0322214619A89A
:10729000FDF718FB002201A90C48683800F062FBDA
:1072A00001A919A801F062FF314601A802F002F914
:1072B000334601AA04490648009401F07DFF0448C2
:1072C000006878E71D0000201C000020280800202E
:1072D00018000020B0F85C10A1F6A43101EB810188
:1072E000C9000A2291FBF2F2B0F860100A44B0F82B
:1072F000621011448AB200F15801A0F8642070476E
:1073000010B52E48B0F85C00A0F6A43000EB800069
:10731000C0000A2190FBF1F04DF2D861084481B21F
:107320002648A0F864100146B1F8640001F014FA90
:107330000A2001F0BDFE2149B1F864000A224FF491
:107340007A7100F0A1FA1D49A1F864000846B0F86E
:10735000640000F57A7081B21848A0F86410014604
:10736000B1F864000A22322100F08EFA1349A1F824
:1073700064000846B0F86410FFF7DAFB0F49B1F873
:10738000600001F0DCF9B0B10C48B0F860000C49C5
:1073900008810A48FFF79EFF0849B1F8640001F030
:1073A000DBF90A2001F084FE0548018905A001F0FF
:1073B00005FA002010BD0820FCE70000C0070020EF
:1073C000B40A0020456E64206F6620566264205324
:1073D00063616E2E205662643D25640A0000000041
:1073E00010B5012002F030F8012001F08FFE0020DE
:1073F00002F02AF8012001F089FE012002F024F8B1
:10740000012001F083FE10BD2DE9F04F2DED0E8B14
:1074100087B04FF010089FED820AB0EE408A9FEDD2
:10742000810AB0EE409A9FED7F0AB0EE40AA9FED30
:107430007E0AF0EE40AA4FF000099FED7C0AB0EE04
:1074400040EAB0EE000AF0EE40EA00200490042783
:107450003C46BDE0214676A001F0B0F94FF0000AAD
:107460004CE05146754800F099FE74480470FBF7F3
:10747000B9FF7248FFF772FC9FED690A05A800EB9F
:107480008A0080ED000A4FF0000B22E0FFF7C8FCF5
:107490006A48D0F85E0128B90A2007B0BDEC0E8B0F
:1074A000BDE8F08F05A800EB8A00D0ED000A634824
:1074B000D0F85E0100EE100AB8EE400A30EE800A05
:1074C00005A800EB8A0080ED000A0BF1010000F036
:1074D000FF0BBBF1100FD9DB05A800EB8A0090ED84
:1074E000000AF3EE000A80EE201A05A800EB8A00DD
:1074F00080ED001A0AF1010000F0FF0ABAF1020F54
:10750000AFDB9DED060ADDED050A30EE600ADFED2A
:10751000460A20EE200AB0EE408A9FED440AB4EEFF
:10752000C08AF1EE10FA06DB9FED400A38EE400A01
:10753000F0EE408A05E09FED3D0A30EE480AF0EE9D
:10754000408AB0EE000AB4EEC08AF1EE10FA06DB13
:10755000B0EE000A38EE400AF0EE409A05E0B0EED8
:10756000000A30EE480AF0EE409A18EE100AFAF7D8
:10757000A1FF41EC1B0B9DED060A10EE101A084608
:10758000FAF798FF41EC1C0B9DED050A10EE101A5E
:107590000846FAF78FFF41EC1D0B8DED02BB8DED18
:1075A00000CB53EC1D2B26A001F008F9F4EEC98A9C
:1075B000F1EE10FA02D2B0EE689A2546F4EECA9ABD
:1075C000F1EE10FA02D2B0EE69AA2646601CC4B2EF
:1075D0002D2CFFF63FAFB7EE000AB4EEC09AF1EEE5
:1075E00010FA01DD0A2058E71E4805734673294644
:1075F0001DA001F0E3F8314620A001F0DFF824A03F
:1076000001F0DCF800200D4948701648007B087036
:107610000846FBF7E7FE0948FFF7A0FB00203CE720
:10762000000000000000C84204568E3E6666A64078
:107630006964783D25642C2000000000C00700200C
:10764000504F533D252E32662C204E45473D252E6A
:1076500032662C205057286E73293D252E32660A3B
:1076600000000000B40A00204C44356E735F73655F
:107670007474696E673D25640A0000004C44326EE4
:10768000735F73657474696E673D25640A0000005A
:10769000456E64206F6620547269675363616E0A99
:1076A00000000000028822F03802028002880A43AB
:1076B00002807047028822F00102028002880A4399
:1076C00002807047028822F00202028002880A4388
:1076D0000280704701827047028822F4444202808F
:1076E00002880A4302807047028822F40062028006
:1076F00002880A4302807047028822F080020280DA
:1077000002880A430280704782880A438280704759
:1077100010B504460748844203D18014FEF7ACFC40
:1077200006E00548844203D14FF40020FEF7A4FC94
:1077300010BD000000300140003C014010B504467F
:107740000B4619882046FFF7C7FF5988204600F0EE
:107750002FF899882046FFF7C7FF19892046FFF7C1
:10776000A9FFD9882046FFF7ADFF5989204600F0D0
:107770000DF899892046FFF795FFD9892046FFF734
:10778000BBFF198A2046FFF7A5FF10BD028822F42F
:107790000072028002880A4302807047018841F02B
:1077A000400101807047818841F004018180704769
:1077B000028822F00402028002880A430280704795
:1077C0007047014608884FF60532904207D1B1F85C
:1077D0001B004AF6CD32904201D1012070470020B3
:1077E000FCE74FF6053202804AF6CD32A0F81B20A6
:1077F00041800022828002813F2282721F22C27257
:10780000FF220273427347F23052C28142F2107279
:10781000028200224282828282750122C275027631
:107820000022427601228276704710B5044602207B
:1078300060704FF4AB7104F16800FAF7A0FC10BD62
:10784000817821B940F26541A0F805101BE08178EC
:10785000012904D140F26541A0F8051013E08178B8
:10786000042904D140F6CA01A0F805100BE0817884
:10787000052904D141F29411A0F8051003E041F26A
:107880009411A0F8051070472DE9F04104460D460B
:1078900016460027B846224800F042FF2048FBF772
:1078A000A1FD1F48FFF7D4FB1D490120FDF724FE71
:1078B000204600F051FF1E2001F0FAFB18E0FFF710
:1078C000AFFA1748D0F8B921214616A000F076FF8C
:1078D0001348D0F8B90110B9781CC7B208E00027E6
:1078E000601B84B2204600F037FF1E2001F0E0FB51
:1078F000B74201DA012000E000204BF234718C42E3
:1079000001DD012100E0002108400028D7D14BF221
:107910003470844202DD2046BDE8F0810020FBE7A0
:10792000C007002056737061643D25642C204576A5
:10793000656E743D25640A008A7840FA02F2B2F559
:10794000806F0BDB8A7840FA02F2A2F2FF328B786A
:10795000C3F105031A41A1F8072002E00022A1F8B3
:1079600007207047F0B51546002246E000F5D076B6
:1079700006EBC206B688AE4200DC42E091F85A60DF
:1079800001EBC60700F5D07606EBC206D6F800C0BC
:10799000C7F800C076687E6000230FE000F5D0765F
:1079A00006EBC206376801F15006F65C01EBC6062D
:1079B0003668B74200D805E05E1CF3B291F85A6011
:1079C0009E42EBDC00BF91F85A4008E0661E01F1D0
:1079D0005007BF5D01F150063755661EF4B29C4258
:1079E000F4DC91F85A7001F15006F75491F85A609E
:1079F000761C81F85A60561CF2B290F89F6196424C
:107A0000B4DC00BFF0BD042808D14FF0E0210969C3
:107A100041F004014FF0E022116107E04FF0E02156
:107A2000096921F004014FF0E022116170477047AD
:107A300010B5002400BF09E00F4901EB8400D0F825
:107A400000080E4941F82400601CC4B21D2CF3D379
:107A50001D220A490A48FAF779FB0A480068FFF72D
:107A6000B0FE38B940F6AC5106480068FFF7B9FEE1
:107A700000F00AF810BD000000F00008240B002000
:107A8000B40A00202C00002010B54FF605300A493A
:107A900008804AF6CD30A1F81B000020FDF76CFDF0
:107AA0000648FDF77DFD1D2203490448FDF786FDCC
:107AB0000120FDF761FD10BDB40A002000F80008A8
:107AC0001FB500200290019000903D48006840F0F2
:107AD00001003B49086000BF39480068C0F340001E
